:03000000020006F5
:03005F0002000399
:0300030002006296
:2000620012007190011B75F0801200D080FE22C2851200957582381200C07582011200C02F
:2000820075820C1200C07582061200C07582801200C0227F8075A0FFC287D286D285EF60F5
:2000A2000CD285AEA0C28574805EFF80F122AF82D287C2868FA0D285C28512009522AF82C9
:2000C200C287C2868FA0D285C28512009522AD82AE83AFF08D828E838FF01200FBFC6018D8
:1900E2008C82C007C006C0051200B0D005D006D0070DBD00DF0E80DC222C
:0C011B004C434420576F726B696E670004
:06003500E478FFF6D8FD9F
:200013007900E94400601B7A00900127780175A000E493F2A308B8000205A0D9F4DAF2756B
:02003300A0FF2C
:20003B007800E84400600A790175A000E4F309D8FC7800E84400600C7900900001E4F0A3C3
:04005B00D8FCD9FAFA
:0D000600758107120117E5826003020003F7
:1C00FB0020F71430F6148883A88220F507E6A88375830022E280F7E49322E02214
:0401170075820022CB
:00000001FF
