:03000000020006F5
:03005F0002000399
:0300030002018671
:20006200C28775A0FFD286D285AFA0C285EF30E708D285AFA0C28580F422AF82C287C28689
:200082008FA0D285C28512006222AF82D287C2868FA0D285C2851200622212006275823823
:2000A20012007C75820112007C75820C12007C75820612007C75828012007C22AD82AE8387
:2000C200AFF08D828E838FF01202EEFC60188C82C007C006C00512008CD005D006D0070DDD
:2000E200BD00DF0E80DC22C280C28122D280C28022C2811200EE22D2811200EEC28122D28A
:2001020081D280C281C28022D280D281C280C28122AF82D20030003E7E008F047D008EF09A
:2001220005F08006EC2CFCED33FDD5F0F7EC30E704D2818002C281C007C0061200EED006D3
:20014200D0070EBE080040D2D281D280A2819200C280C28180BF227F00D2817E00D28030CE
:2001620081158E057407C39DF5F005F07401800225E0D5F0FB4207C2800EBE080040DEC2A4
:20018200818F822212009C90030E75F0801200BE7582C012007C90031475F0801200BE12F2
:2001A20001017582D01201137582001201131201017582D1120113120159AF82C0071200B9
:2001C200F3D007EFC4540F4430FE740F5F4430FF75828BC007C00612007CD0068E821200E1
:2001E2008CD0078F8212008C120159AF82C0071200F3D007EFC4540F4430FE740F5F4430CD
:20020200FF758288C007C00612007CD0068E8212008CD0078F8212008C75823A12008C1258
:200222000159AF82C0071200F3D007EFC4540F4430FE740F5F4430FF758285C007C0061296
:20024200007CD0068E8212008CD0078F8212008C75823A12008C1201591200F3120159AFBB
:2002620082C0071200F3D007EFC4540F4430FE740F5F4430FF7582C5C007C00612007CD0D3
:20028200068E8212008CD0078F8212008C75822F12008C120159AF82C0071200F3D007EF2F
:2002A200C4540F4430F582740F5F4430FFC00712008CD0078F8212008C75822F12008C1214
:2002C2000159AF82C0071200F912010AD007EFC4540F4430F582740F5F4430FFC00712009C
:0C02E2008CD0078F8212008C0201A12238
:0C030E0054696D653A00446174653A0062
:06003500E478FFF6D8FD9F
:200013007900E94400601B7A0090031A780175A000E493F2A308B8000205A0D9F4DAF27576
:02003300A0FF2C
:20003B007800E84400600A790175A000E4F309D8FC7800E84400600C7900900001E4F0A3C3
:04005B00D8FCD9FAFA
:0D00060075812012030AE5826003020003E9
:1C02EE0020F71430F6148883A88220F507E6A88375830022E280F7E49322E0221F
:04030A0075820022D6
:00000001FF
